{
  "contractName": "DroveFund",
  "abi": [
    {
      "inputs": [],
      "payable": false,
      "stateMutability": "nonpayable",
      "type": "constructor"
    },
    {
      "constant": true,
      "inputs": [],
      "name": "campaignIndex",
      "outputs": [
        {
          "internalType": "uint256",
          "name": "",
          "type": "uint256"
        }
      ],
      "payable": false,
      "stateMutability": "view",
      "type": "function"
    },
    {
      "constant": false,
      "inputs": [
        {
          "internalType": "string",
          "name": "_title",
          "type": "string"
        },
        {
          "internalType": "uint256",
          "name": "_goal",
          "type": "uint256"
        }
      ],
      "name": "createCampaign",
      "outputs": [],
      "payable": false,
      "stateMutability": "nonpayable",
      "type": "function"
    },
    {
      "constant": false,
      "inputs": [
        {
          "internalType": "uint256",
          "name": "_id",
          "type": "uint256"
        }
      ],
      "name": "donate",
      "outputs": [],
      "payable": true,
      "stateMutability": "payable",
      "type": "function"
    },
    {
      "constant": false,
      "inputs": [
        {
          "internalType": "uint256",
          "name": "_id",
          "type": "uint256"
        }
      ],
      "name": "collectFunds",
      "outputs": [],
      "payable": false,
      "stateMutability": "nonpayable",
      "type": "function"
    },
    {
      "constant": false,
      "inputs": [
        {
          "internalType": "uint256",
          "name": "_id",
          "type": "uint256"
        }
      ],
      "name": "refundDonations",
      "outputs": [],
      "payable": false,
      "stateMutability": "nonpayable",
      "type": "function"
    },
    {
      "constant": true,
      "inputs": [
        {
          "internalType": "uint256",
          "name": "_id",
          "type": "uint256"
        }
      ],
      "name": "checkCampaign",
      "outputs": [
        {
          "internalType": "uint256",
          "name": "",
          "type": "uint256"
        },
        {
          "internalType": "string",
          "name": "",
          "type": "string"
        },
        {
          "internalType": "uint256",
          "name": "",
          "type": "uint256"
        },
        {
          "internalType": "address",
          "name": "",
          "type": "address"
        },
        {
          "internalType": "uint256",
          "name": "",
          "type": "uint256"
        }
      ],
      "payable": false,
      "stateMutability": "view",
      "type": "function"
    },
    {
      "constant": true,
      "inputs": [
        {
          "internalType": "uint256",
          "name": "_id",
          "type": "uint256"
        }
      ],
      "name": "checkDonations",
      "outputs": [
        {
          "internalType": "uint256",
          "name": "",
          "type": "uint256"
        }
      ],
      "payable": false,
      "stateMutability": "view",
      "type": "function"
    },
    {
      "constant": true,
      "inputs": [
        {
          "internalType": "uint256",
          "name": "_id",
          "type": "uint256"
        }
      ],
      "name": "currentTime",
      "outputs": [
        {
          "internalType": "uint256",
          "name": "",
          "type": "uint256"
        },
        {
          "internalType": "uint256",
          "name": "",
          "type": "uint256"
        }
      ],
      "payable": false,
      "stateMutability": "view",
      "type": "function"
    }
  ],
  "bytecode": "0x608060405234801561001057600080fd5b5060008081905550610fb8806100276000396000f3fe60806040526004361061007b5760003560e01c8063c35d8ee51161004e578063c35d8ee51461018b578063f102a67c146101c6578063f14faf6f14610298578063fd2cdd16146102c65761007b565b806307fd42511461008057806318d9fc09146100cf57806356361f0d14610125578063597e473414610150575b600080fd5b34801561008c57600080fd5b506100b9600480360360208110156100a357600080fd5b81019080803590602001909291905050506103c2565b6040518082815260200191505060405180910390f35b3480156100db57600080fd5b50610108600480360360208110156100f257600080fd5b8101908080359060200190929190505050610476565b604051808381526020018281526020019250505060405180910390f35b34801561013157600080fd5b5061013a6105ea565b6040518082815260200191505060405180910390f35b34801561015c57600080fd5b506101896004803603602081101561017357600080fd5b81019080803590602001909291905050506105f0565b005b34801561019757600080fd5b506101c4600480360360208110156101ae57600080fd5b81019080803590602001909291905050506107fd565b005b3480156101d257600080fd5b50610296600480360360408110156101e957600080fd5b810190808035906020019064010000000081111561020657600080fd5b82018360208201111561021857600080fd5b8035906020019184600183028401116401000000008311171561023a57600080fd5b91908080601f016020809104026020016040519081016040528093929190818152602001838380828437600081840152601f19601f82011690508083019250505050505050919291929080359060200190929190505050610939565b005b6102c4600480360360208110156102ae57600080fd5b8101908080359060200190929190505050610a6f565b005b3480156102d257600080fd5b506102ff600480360360208110156102e957600080fd5b8101908080359060200190929190505050610c33565b60405180868152602001806020018581526020018473ffffffffffffffffffffffffffffffffffffffff1673ffffffffffffffffffffffffffffffffffffffff168152602001838152602001828103825286818151815260200191508051906020019080838360005b83811015610383578082015181840152602081019050610368565b50505050905090810190601f1680156103b05780820380516001836020036101000a031916815260200191505b50965050505050505060405180910390f35b6000806001600084815260200190815260200160002090506103e2610dcc565b816008016000836007015481526020019081526020016000206040518060400160405290816000820160009054906101000a900473ffffffffffffffffffffffffffffffffffffffff1673ffffffffffffffffffffffffffffffffffffffff1673ffffffffffffffffffffffffffffffffffffffff1681526020016001820154815250509050816004015492505050919050565b600080610481610dfc565b6001600085815260200190815260200160002060405180610100016040529081600082015481526020016001820160009054906101000a900473ffffffffffffffffffffffffffffffffffffffff1673ffffffffffffffffffffffffffffffffffffffff1673ffffffffffffffffffffffffffffffffffffffff168152602001600282018054600181600116156101000203166002900480601f0160208091040260200160405190810160405280929190818152602001828054600181600116156101000203166002900480156105995780601f1061056e57610100808354040283529160200191610599565b820191906000526020600020905b81548152906001019060200180831161057c57829003601f168201915b505050505081526020016003820154815260200160048201548152602001600582015481526020016006820154815260200160078201548152505090508060a001518160c001519250925050915091565b60005481565b6105f8610dfc565b6001600083815260200190815260200160002060405180610100016040529081600082015481526020016001820160009054906101000a900473ffffffffffffffffffffffffffffffffffffffff1673ffffffffffffffffffffffffffffffffffffffff1673ffffffffffffffffffffffffffffffffffffffff168152602001600282018054600181600116156101000203166002900480601f0160208091040260200160405190810160405280929190818152602001828054600181600116156101000203166002900480156107105780601f106106e557610100808354040283529160200191610710565b820191906000526020600020905b8154815290600101906020018083116106f357829003601f168201915b50505050508152602001600382015481526020016004820154815260200160058201548152602001600682015481526020016007820154815250509050806020015173ffffffffffffffffffffffffffffffffffffffff163373ffffffffffffffffffffffffffffffffffffffff161461078957600080fd5b80608001518160600151111561079e57600080fd5b8060c0015142116107ae57600080fd5b3373ffffffffffffffffffffffffffffffffffffffff166108fc82608001519081150290604051600060405180830381858888f193505050501580156107f8573d6000803e3d6000fd5b505050565b60006001600083815260200190815260200160002090508060060154421161082457600080fd5b806004015481600301541161083857600080fd5b6000809050600090505b8160070154811161093457610855610dcc565b8260080160008381526020019081526020016000206040518060400160405290816000820160009054906101000a900473ffffffffffffffffffffffffffffffffffffffff1673ffffffffffffffffffffffffffffffffffffffff1673ffffffffffffffffffffffffffffffffffffffff1681526020016001820154815250509050806000015173ffffffffffffffffffffffffffffffffffffffff166108fc82602001519081150290604051600060405180830381858888f19350505050158015610925573d6000803e3d6000fd5b50508080600101915050610842565b505050565b6001600080828254019250508190555060006276a7004201905061095b610dfc565b60405180610100016040528060005481526020013373ffffffffffffffffffffffffffffffffffffffff16815260200185815260200184815260200160008152602001428152602001838152602001600081525090508060016000805481526020019081526020016000206000820151816000015560208201518160010160006101000a81548173ffffffffffffffffffffffffffffffffffffffff021916908373ffffffffffffffffffffffffffffffffffffffff1602179055506040820151816002019080519060200190610a33929190610e57565b50606082015181600301556080820151816004015560a0820151816005015560c0820151816006015560e0820151816007015590505050505050565b600060016000838152602001908152602001600020905042816006015411610a9657600080fd5b6001816007015401816007018190555034816004015401816004018190555060405180604001604052803373ffffffffffffffffffffffffffffffffffffffff168152602001348152508160080160008360070154815260200190815260200160002060008201518160000160006101000a81548173ffffffffffffffffffffffffffffffffffffffff021916908373ffffffffffffffffffffffffffffffffffffffff160217905550602082015181600101559050508060016000848152602001908152602001600020600082015481600001556001820160009054906101000a900473ffffffffffffffffffffffffffffffffffffffff168160010160006101000a81548173ffffffffffffffffffffffffffffffffffffffff021916908373ffffffffffffffffffffffffffffffffffffffff16021790555060028201816002019080546001816001161561010002031660029004610bf9929190610ed7565b5060038201548160030155600482015481600401556005820154816005015560068201548160060155600782015481600701559050505050565b600060606000806000610c44610dfc565b6001600088815260200190815260200160002060405180610100016040529081600082015481526020016001820160009054906101000a900473ffffffffffffffffffffffffffffffffffffffff1673ffffffffffffffffffffffffffffffffffffffff1673ffffffffffffffffffffffffffffffffffffffff168152602001600282018054600181600116156101000203166002900480601f016020809104026020016040519081016040528092919081815260200182805460018160011615610100020316600290048015610d5c5780601f10610d3157610100808354040283529160200191610d5c565b820191906000526020600020905b815481529060010190602001808311610d3f57829003601f168201915b5050505050815260200160038201548152602001600482015481526020016005820154815260200160068201548152602001600782015481525050905080600001518160400151826060015183602001518460800151839350819150955095509550955095505091939590929450565b6040518060400160405280600073ffffffffffffffffffffffffffffffffffffffff168152602001600081525090565b60405180610100016040528060008152602001600073ffffffffffffffffffffffffffffffffffffffff1681526020016060815260200160008152602001600081526020016000815260200160008152602001600081525090565b828054600181600116156101000203166002900490600052602060002090601f016020900481019282601f10610e9857805160ff1916838001178555610ec6565b82800160010185558215610ec6579182015b82811115610ec5578251825591602001919060010190610eaa565b5b509050610ed39190610f5e565b5090565b828054600181600116156101000203166002900490600052602060002090601f016020900481019282601f10610f105780548555610f4d565b82800160010185558215610f4d57600052602060002091601f016020900482015b82811115610f4c578254825591600101919060010190610f31565b5b509050610f5a9190610f5e565b5090565b610f8091905b80821115610f7c576000816000905550600101610f64565b5090565b9056fea265627a7a72315820085c8c17ce155de84df4a4d7f20e8d007fb3bee6c1689020eba7f8a4f0df283164736f6c634300050c0032",
  "source": "pragma solidity >=0.4.21 <0.6.0;\n\ncontract DroveFund {\n\n  uint public campaignIndex;\n\n  mapping (uint => Campaign) userCampaigns;\n\n  struct Funder {\n    address payable funder;\n    uint amount;\n  }\n\n  struct Campaign {\n    uint id;\n    address payable owner;\n    string title;\n    uint goal;\n    uint collected;\n    uint startTime;\n    uint deadline;\n    uint funders;\n    mapping (uint => Funder) campaignFunders;\n  }\n\n  constructor() public {\n    campaignIndex = 0;\n  }\n\n  function createCampaign(string memory _title, uint _goal) public {\n    campaignIndex += 1;\n  //  uint deadline = now + (_daysTillDeadline * 1 days);\n    uint deadline = now + (90 * 1 days);\n    Campaign memory campaign = Campaign(campaignIndex, msg.sender, _title, _goal, 0, now, deadline, 0);\n    userCampaigns[campaignIndex] = campaign;\n  }\n\n  function donate(uint _id) public payable{\n    Campaign storage campaign = userCampaigns[_id];\n    //require(msg.sender != campaign.owner);\n    require(campaign.deadline > now);\n    campaign.funders = campaign.funders + 1;\n    campaign.collected = campaign.collected +  msg.value;\n    campaign.campaignFunders[campaign.funders] = Funder(msg.sender, msg.value);\n\n    userCampaigns[_id] = campaign;\n  }\n\n  function collectFunds(uint _id) public {\n    Campaign memory campaign = userCampaigns[_id];\n    require(msg.sender == campaign.owner);\n    require(campaign.goal <= campaign.collected);\n    require(now > campaign.deadline);\n    msg.sender.transfer(campaign.collected);\n  }\n\n  function refundDonations(uint _id) public {\n    Campaign storage campaign = userCampaigns[_id];\n    require(now > campaign.deadline);\n    require(campaign.goal > campaign.collected);\n    uint i=0;\n    for(i=0; i<=campaign.funders; i++) {\n      Funder memory funder = campaign.campaignFunders[i];\n      funder.funder.transfer(funder.amount);\n    }\n  }\n\n  function checkCampaign(uint _id) public view returns (uint, string memory, uint, address, uint) {\n    Campaign memory campaign = userCampaigns[_id];\n    return(campaign.id, campaign.title, campaign.goal, campaign.owner, campaign.collected);\n  }\n\n  function checkDonations(uint _id) public view returns (uint) {\n    Campaign storage campaign = userCampaigns[_id];\n    Funder memory funder = campaign.campaignFunders[campaign.funders];\n    return(campaign.collected);\n  }\n\n  function currentTime(uint _id) public view returns(uint, uint) {\n    Campaign memory campaign = userCampaigns[_id];\n    return(campaign.startTime, campaign.deadline);\n  }\n}\n",
  "sourcePath": "/Users/sy/crowdFundingDapp/contracts/DroveFund.sol",
  "compiler": {
    "name": "solc",
    "version": "0.5.12+commit.7709ece9.Emscripten.clang"
  },
  "schemaVersion": "3.0.18",
  "updatedAt": "2019-12-05T15:39:16.470Z",
  "devdoc": {
    "methods": {}
  },
  "userdoc": {
    "methods": {}
  }
}