{
  "contractName": "DroveFund",
  "abi": [
    {
      "inputs": [],
      "payable": false,
      "stateMutability": "nonpayable",
      "type": "constructor"
    },
    {
      "anonymous": false,
      "inputs": [
        {
          "indexed": false,
          "internalType": "address",
          "name": "creator",
          "type": "address"
        },
        {
          "indexed": false,
          "internalType": "string",
          "name": "title",
          "type": "string"
        },
        {
          "indexed": false,
          "internalType": "uint256",
          "name": "goal",
          "type": "uint256"
        }
      ],
      "name": "CampaignCreationLog",
      "type": "event"
    },
    {
      "anonymous": false,
      "inputs": [
        {
          "indexed": false,
          "internalType": "address",
          "name": "collector",
          "type": "address"
        },
        {
          "indexed": false,
          "internalType": "uint256",
          "name": "amount",
          "type": "uint256"
        }
      ],
      "name": "CollectionLog",
      "type": "event"
    },
    {
      "anonymous": false,
      "inputs": [
        {
          "indexed": false,
          "internalType": "address",
          "name": "donator",
          "type": "address"
        },
        {
          "indexed": false,
          "internalType": "uint256",
          "name": "donation",
          "type": "uint256"
        }
      ],
      "name": "DonationLog",
      "type": "event"
    },
    {
      "anonymous": false,
      "inputs": [
        {
          "indexed": false,
          "internalType": "uint256",
          "name": "campignId",
          "type": "uint256"
        },
        {
          "indexed": false,
          "internalType": "uint256",
          "name": "amount",
          "type": "uint256"
        }
      ],
      "name": "RefundLog",
      "type": "event"
    },
    {
      "constant": true,
      "inputs": [],
      "name": "campaignIndex",
      "outputs": [
        {
          "internalType": "uint256",
          "name": "",
          "type": "uint256"
        }
      ],
      "payable": false,
      "stateMutability": "view",
      "type": "function"
    },
    {
      "constant": false,
      "inputs": [
        {
          "internalType": "string",
          "name": "_title",
          "type": "string"
        },
        {
          "internalType": "uint256",
          "name": "_goal",
          "type": "uint256"
        }
      ],
      "name": "createCampaign",
      "outputs": [
        {
          "internalType": "bool",
          "name": "",
          "type": "bool"
        }
      ],
      "payable": true,
      "stateMutability": "payable",
      "type": "function"
    },
    {
      "constant": false,
      "inputs": [
        {
          "internalType": "uint256",
          "name": "_id",
          "type": "uint256"
        }
      ],
      "name": "donate",
      "outputs": [
        {
          "internalType": "bool",
          "name": "",
          "type": "bool"
        }
      ],
      "payable": true,
      "stateMutability": "payable",
      "type": "function"
    },
    {
      "constant": false,
      "inputs": [
        {
          "internalType": "uint256",
          "name": "_id",
          "type": "uint256"
        }
      ],
      "name": "collectFunds",
      "outputs": [
        {
          "internalType": "bool",
          "name": "",
          "type": "bool"
        }
      ],
      "payable": false,
      "stateMutability": "nonpayable",
      "type": "function"
    },
    {
      "constant": false,
      "inputs": [
        {
          "internalType": "uint256",
          "name": "_id",
          "type": "uint256"
        }
      ],
      "name": "refundDonations",
      "outputs": [
        {
          "internalType": "bool",
          "name": "",
          "type": "bool"
        }
      ],
      "payable": false,
      "stateMutability": "nonpayable",
      "type": "function"
    },
    {
      "constant": true,
      "inputs": [
        {
          "internalType": "uint256",
          "name": "_id",
          "type": "uint256"
        }
      ],
      "name": "checkCampaign",
      "outputs": [
        {
          "internalType": "uint256",
          "name": "",
          "type": "uint256"
        },
        {
          "internalType": "string",
          "name": "",
          "type": "string"
        },
        {
          "internalType": "uint256",
          "name": "",
          "type": "uint256"
        },
        {
          "internalType": "address",
          "name": "",
          "type": "address"
        },
        {
          "internalType": "uint256",
          "name": "",
          "type": "uint256"
        }
      ],
      "payable": false,
      "stateMutability": "view",
      "type": "function"
    },
    {
      "constant": true,
      "inputs": [
        {
          "internalType": "uint256",
          "name": "_id",
          "type": "uint256"
        }
      ],
      "name": "checkDonations",
      "outputs": [
        {
          "internalType": "uint256",
          "name": "",
          "type": "uint256"
        }
      ],
      "payable": false,
      "stateMutability": "view",
      "type": "function"
    },
    {
      "constant": true,
      "inputs": [
        {
          "internalType": "uint256",
          "name": "_id",
          "type": "uint256"
        }
      ],
      "name": "currentTime",
      "outputs": [
        {
          "internalType": "uint256",
          "name": "",
          "type": "uint256"
        },
        {
          "internalType": "uint256",
          "name": "",
          "type": "uint256"
        }
      ],
      "payable": false,
      "stateMutability": "view",
      "type": "function"
    }
  ],
  "bytecode": "0x608060405234801561001057600080fd5b50600080819055506112ae806100276000396000f3fe60806040526004361061007b5760003560e01c8063c35d8ee51161004e578063c35d8ee5146101a3578063f102a67c146101f6578063f14faf6f146102d3578063fd2cdd16146103195761007b565b806307fd42511461008057806318d9fc09146100cf57806356361f0d14610125578063597e473414610150575b600080fd5b34801561008c57600080fd5b506100b9600480360360208110156100a357600080fd5b8101908080359060200190929190505050610415565b6040518082815260200191505060405180910390f35b3480156100db57600080fd5b50610108600480360360208110156100f257600080fd5b810190808035906020019092919050505061043a565b604051808381526020018281526020019250505060405180910390f35b34801561013157600080fd5b5061013a6105ae565b6040518082815260200191505060405180910390f35b34801561015c57600080fd5b506101896004803603602081101561017357600080fd5b81019080803590602001909291905050506105b4565b604051808215151515815260200191505060405180910390f35b3480156101af57600080fd5b506101dc600480360360208110156101c657600080fd5b81019080803590602001909291905050506108ea565b604051808215151515815260200191505060405180910390f35b6102b96004803603604081101561020c57600080fd5b810190808035906020019064010000000081111561022957600080fd5b82018360208201111561023b57600080fd5b8035906020019184600183028401116401000000008311171561025d57600080fd5b91908080601f016020809104026020016040519081016040528093929190818152602001838380828437600081840152601f19601f82011690508083019250505050505050919291929080359060200190929190505050610a74565b604051808215151515815260200191505060405180910390f35b6102ff600480360360208110156102e957600080fd5b8101908080359060200190929190505050610c96565b604051808215151515815260200191505060405180910390f35b34801561032557600080fd5b506103526004803603602081101561033c57600080fd5b8101908080359060200190929190505050610f29565b60405180868152602001806020018581526020018473ffffffffffffffffffffffffffffffffffffffff1673ffffffffffffffffffffffffffffffffffffffff168152602001838152602001828103825286818151815260200191508051906020019080838360005b838110156103d65780820151818401526020810190506103bb565b50505050905090810190601f1680156104035780820380516001836020036101000a031916815260200191505b50965050505050505060405180910390f35b6000806001600084815260200190815260200160002090508060040154915050919050565b6000806104456110c2565b6001600085815260200190815260200160002060405180610100016040529081600082015481526020016001820160009054906101000a900473ffffffffffffffffffffffffffffffffffffffff1673ffffffffffffffffffffffffffffffffffffffff1673ffffffffffffffffffffffffffffffffffffffff168152602001600282018054600181600116156101000203166002900480601f01602080910402602001604051908101604052809291908181526020018280546001816001161561010002031660029004801561055d5780601f106105325761010080835404028352916020019161055d565b820191906000526020600020905b81548152906001019060200180831161054057829003601f168201915b505050505081526020016003820154815260200160048201548152602001600582015481526020016006820154815260200160078201548152505090508060a001518160c001519250925050915091565b60005481565b60006105be6110c2565b6001600084815260200190815260200160002060405180610100016040529081600082015481526020016001820160009054906101000a900473ffffffffffffffffffffffffffffffffffffffff1673ffffffffffffffffffffffffffffffffffffffff1673ffffffffffffffffffffffffffffffffffffffff168152602001600282018054600181600116156101000203166002900480601f0160208091040260200160405190810160405280929190818152602001828054600181600116156101000203166002900480156106d65780601f106106ab576101008083540402835291602001916106d6565b820191906000526020600020905b8154815290600101906020018083116106b957829003601f168201915b50505050508152602001600382015481526020016004820154815260200160058201548152602001600682015481526020016007820154815250509050806020015173ffffffffffffffffffffffffffffffffffffffff163373ffffffffffffffffffffffffffffffffffffffff161461074f57600080fd5b80608001518160600151111561076457600080fd5b3373ffffffffffffffffffffffffffffffffffffffff166108fc82608001519081150290604051600060405180830381858888f193505050501580156107ae573d6000803e3d6000fd5b507f9c3d02ed153a3ee5ce935ec1d55d28ca8cd7161105f2de7e459fb5878bbbe007338260800151604051808373ffffffffffffffffffffffffffffffffffffffff1673ffffffffffffffffffffffffffffffffffffffff1681526020018281526020019250505060405180910390a1600081608001818152505080600160008581526020019081526020016000206000820151816000015560208201518160010160006101000a81548173ffffffffffffffffffffffffffffffffffffffff021916908373ffffffffffffffffffffffffffffffffffffffff16021790555060408201518160020190805190602001906108aa92919061111d565b50606082015181600301556080820151816004015560a0820151816005015560c0820151816006015560e082015181600701559050506001915050919050565b6000806001600084815260200190815260200160002090508060060154421161091257600080fd5b806004015481600301541161092657600080fd5b6000809050600090505b81600701548111610a225761094361119d565b8260080160008381526020019081526020016000206040518060400160405290816000820160009054906101000a900473ffffffffffffffffffffffffffffffffffffffff1673ffffffffffffffffffffffffffffffffffffffff1673ffffffffffffffffffffffffffffffffffffffff1681526020016001820154815250509050806000015173ffffffffffffffffffffffffffffffffffffffff166108fc82602001519081150290604051600060405180830381858888f19350505050158015610a13573d6000803e3d6000fd5b50508080600101915050610930565b7f3003f15e75b9007ed78b4d251895013bb34578d8bde04c3e1b9fc48d8f7e726e82600001548360040154604051808381526020018281526020019250505060405180910390a1600192505050919050565b60006001600080828254019250508190555060006276a70042019050610a986110c2565b60405180610100016040528060005481526020013373ffffffffffffffffffffffffffffffffffffffff16815260200186815260200185815260200160008152602001428152602001838152602001600081525090508060016000805481526020019081526020016000206000820151816000015560208201518160010160006101000a81548173ffffffffffffffffffffffffffffffffffffffff021916908373ffffffffffffffffffffffffffffffffffffffff1602179055506040820151816002019080519060200190610b7092919061111d565b50606082015181600301556080820151816004015560a0820151816005015560c0820151816006015560e082015181600701559050507f023e1c61b518028dc55cec2a630975d8b4936aa115f04444919c931e23acdef4816020015182604001518360600151604051808473ffffffffffffffffffffffffffffffffffffffff1673ffffffffffffffffffffffffffffffffffffffff16815260200180602001838152602001828103825284818151815260200191508051906020019080838360005b83811015610c4e578082015181840152602081019050610c33565b50505050905090810190601f168015610c7b5780820380516001836020036101000a031916815260200191505b5094505050505060405180910390a160019250505092915050565b6000806001600084815260200190815260200160002090508060010160009054906101000a900473ffffffffffffffffffffffffffffffffffffffff1673ffffffffffffffffffffffffffffffffffffffff163373ffffffffffffffffffffffffffffffffffffffff161415610d0b57600080fd5b42816006015411610d1b57600080fd5b6001816007015401816007018190555034816004015401816004018190555060405180604001604052803373ffffffffffffffffffffffffffffffffffffffff168152602001348152508160080160008360070154815260200190815260200160002060008201518160000160006101000a81548173ffffffffffffffffffffffffffffffffffffffff021916908373ffffffffffffffffffffffffffffffffffffffff160217905550602082015181600101559050508060016000858152602001908152602001600020600082015481600001556001820160009054906101000a900473ffffffffffffffffffffffffffffffffffffffff168160010160006101000a81548173ffffffffffffffffffffffffffffffffffffffff021916908373ffffffffffffffffffffffffffffffffffffffff16021790555060028201816002019080546001816001161561010002031660029004610e7e9291906111cd565b5060038201548160030155600482015481600401556005820154816005015560068201548160060155600782015481600701559050507fb263c20524497c3d0be543acc504ac29a1135e63d84b5eb5921e8ae4a551deee3334604051808373ffffffffffffffffffffffffffffffffffffffff1673ffffffffffffffffffffffffffffffffffffffff1681526020018281526020019250505060405180910390a16001915050919050565b600060606000806000610f3a6110c2565b6001600088815260200190815260200160002060405180610100016040529081600082015481526020016001820160009054906101000a900473ffffffffffffffffffffffffffffffffffffffff1673ffffffffffffffffffffffffffffffffffffffff1673ffffffffffffffffffffffffffffffffffffffff168152602001600282018054600181600116156101000203166002900480601f0160208091040260200160405190810160405280929190818152602001828054600181600116156101000203166002900480156110525780601f1061102757610100808354040283529160200191611052565b820191906000526020600020905b81548152906001019060200180831161103557829003601f168201915b5050505050815260200160038201548152602001600482015481526020016005820154815260200160068201548152602001600782015481525050905080600001518160400151826060015183602001518460800151839350819150955095509550955095505091939590929450565b60405180610100016040528060008152602001600073ffffffffffffffffffffffffffffffffffffffff1681526020016060815260200160008152602001600081526020016000815260200160008152602001600081525090565b828054600181600116156101000203166002900490600052602060002090601f016020900481019282601f1061115e57805160ff191683800117855561118c565b8280016001018555821561118c579182015b8281111561118b578251825591602001919060010190611170565b5b5090506111999190611254565b5090565b6040518060400160405280600073ffffffffffffffffffffffffffffffffffffffff168152602001600081525090565b828054600181600116156101000203166002900490600052602060002090601f016020900481019282601f106112065780548555611243565b8280016001018555821561124357600052602060002091601f016020900482015b82811115611242578254825591600101919060010190611227565b5b5090506112509190611254565b5090565b61127691905b8082111561127257600081600090555060010161125a565b5090565b9056fea265627a7a723158205c145253dce56a8cf33c23ef828d04942ee047cbbfd14a6df4799cf47a0b168164736f6c634300050c0032",
  "source": "pragma solidity >=0.4.21 <0.6.0;\n\ncontract DroveFund {\n\n  // State variables\n  uint public campaignIndex;\n  mapping (uint => Campaign) userCampaigns;\n\n  // Structs\n  struct Funder {\n    address payable funder;\n    uint amount;\n  }\n\n  struct Campaign {\n    uint id;\n    address payable owner;\n    string title;\n    uint goal;\n    uint collected;\n    uint startTime;\n    uint deadline;\n    uint funders;\n    mapping (uint => Funder) campaignFunders;\n  }\n\n  // Events\n  event CampaignCreationLog(address creator, string title, uint goal);\n  event DonationLog(address donator, uint donation);\n  event CollectionLog(address collector, uint amount);\n  event RefundLog(uint campignId, uint amount);\n\n  constructor() public {\n    campaignIndex = 0;\n  }\n\n  // Campaign creation\n  function createCampaign(string memory _title, uint _goal) public payable returns(bool){\n    campaignIndex += 1;\n  //  uint deadline = now + (_daysTillDeadline * 1 days);\n    uint deadline = now + (90 * 1 days);\n    Campaign memory campaign = Campaign(campaignIndex, msg.sender, _title, _goal, 0, now, deadline, 0);\n    userCampaigns[campaignIndex] = campaign;\n    emit CampaignCreationLog(campaign.owner, campaign.title, campaign.goal);\n    return(true);\n  }\n\n  // Campaign donation\n  function donate(uint _id) public payable returns(bool){\n    Campaign storage campaign = userCampaigns[_id];\n    require(msg.sender != campaign.owner);\n    require(campaign.deadline > now);\n    campaign.funders = campaign.funders + 1;\n    campaign.collected = campaign.collected +  msg.value;\n    campaign.campaignFunders[campaign.funders] = Funder(msg.sender, msg.value);\n    userCampaigns[_id] = campaign;\n    emit DonationLog(msg.sender, msg.value);\n    return(true);\n  }\n\n  // Fund collection after reaching goal\n  function collectFunds(uint _id) public returns(bool){\n    Campaign memory campaign = userCampaigns[_id];\n    require(msg.sender == campaign.owner);\n    require(campaign.goal <= campaign.collected);\n    //require(now > campaign.deadline);\n    msg.sender.transfer(campaign.collected);\n    emit CollectionLog(msg.sender, campaign.collected);\n    campaign.collected = 0;\n    userCampaigns[_id] = campaign;\n    return(true);\n  }\n\n  // Donation refund if goal not reached before deadline\n  function refundDonations(uint _id) public returns(bool){\n    Campaign storage campaign = userCampaigns[_id];\n    require(now > campaign.deadline);\n    require(campaign.goal > campaign.collected);\n    uint i=0;\n    for(i=0; i<=campaign.funders; i++) {\n      Funder memory funder = campaign.campaignFunders[i];\n      funder.funder.transfer(funder.amount);\n    }\n    emit RefundLog(campaign.id, campaign.collected);\n    return(true);\n  }\n\n  // Check campaign details\n  function checkCampaign(uint _id) public view returns (uint, string memory, uint, address, uint) {\n    Campaign memory campaign = userCampaigns[_id];\n    return(campaign.id, campaign.title, campaign.goal, campaign.owner, campaign.collected);\n  }\n\n  // Return funds collected till present\n  function checkDonations(uint _id) public view returns (uint) {\n    Campaign storage campaign = userCampaigns[_id];\n    return(campaign.collected);\n  }\n\n  // Return campaign start time and deadline\n  function currentTime(uint _id) public view returns(uint, uint) {\n    Campaign memory campaign = userCampaigns[_id];\n    return(campaign.startTime, campaign.deadline);\n  }\n}\n",
  "sourcePath": "/Users/sy/crowdFundingDapp/contracts/DroveFund.sol",
  "compiler": {
    "name": "solc",
    "version": "0.5.12+commit.7709ece9.Emscripten.clang"
  },
  "schemaVersion": "3.0.18",
  "updatedAt": "2019-12-08T09:15:40.223Z",
  "devdoc": {
    "methods": {}
  },
  "userdoc": {
    "methods": {}
  }
}